:100000000C9434000C9451000C9451000C94510049
:100010000C9451000C9451000C9451000C9451001C
:100020000C9451000C9451000C9451000C9451000C
:100030000C9451000C9451000C9451000C945100FC
:100040000C9451000C9451000C9451000C945100EC
:100050000C9451000C9451000C9451000C945100DC
:100060000C9451000C94510011241FBECFEFD8E026
:10007000DEBFCDBF11E0A0E0B1E0E0EBF9E002C0EF
:1000800005900D92A835B107D9F711E0A8E5B1E0C8
:1000900001C01D92AE35B107E1F70E9460010C94DA
:1000A000D6040C940000BC018091B9008E7F80932F
:1000B000B9008091B9008D7F8093B90080EA9FE0FC
:1000C0000E947804603130F0862F90E0409795953B
:1000D0008795682F6093B800089584E690E00E94A9
:1000E0005300ECEBF0E080818460808308953C9ABB
:1000F00084EA8093BC00089584E98093BC0008954D
:10010000882329F08091BC008F70806C04C080919E
:10011000BC008F7080688093BC0008958091BB0004
:1001200008958091B90008958FEF84B987B98AB98D
:1001300080E388B982E085BD1092C50087E6809390
:10014000C40088E18093C100E0ECF0E080818D7F05
:1001500080838AE491E090935B0180935A01089533
:100160009C01220F331F81E006C085BB16BCA89BF3
:10017000FECF2050314091E021303907B0F781E0C7
:1001800085BB822F819586BDA89BFECF0895CF9316
:10019000DF93EC0111C08AEF90E00E94B0008AEF7B
:1001A00090E00E94B0008AEF90E00E94B0008AEFD9
:1001B00090E00E94B0002197209769F7DF91CF91DE
:1001C00008951F93182F81E090E00E94C7003C9A89
:1001D0001093BB0084E88093BC001F9108951F9387
:1001E000182F8A3019F48DE00E94EF008091C00032
:1001F00085FFFCCF1093C60080E090E01F9108952A
:1002000020E030E002C02F5F3F4F8091BC0087FFAD
:1002100004C02935310544F003C02A35310599F76A
:1002200080E091E00E94C60108950F931F933C9ACD
:1002300014EA1093BC000E94000182E90E94E100D0
:100240000E94000180E00E94E1000E9400013C9AAF
:100250001093BC0083E90E94E1000E94000180919C
:10026000BC008F70806C8093BC000E9400010091E4
:10027000BB000E9400018091BC008F708068809359
:10028000BC000E9400011091BB000E94000184E9A3
:100290008093BC00902F80E0212F30E0282B392B59
:1002A00054E0359527955A95E1F733FD386FC9012C
:1002B00060E170E00E948C04CB011F910F910895C2
:1002C0001F93CF93DF938FEF84B987B98AB980E307
:1002D00088B982E085BD1092C50087E68093C4008E
:1002E00088E18093C1008091C0008D7F8093C00021
:1002F0008AE491E090935B0180935A0183E191E05D
:100300000E94C601C2E2D1E010E20E94150100D0B5
:1003100000D0EDB7FEB7D283C183948383830E945C
:10032000B1018091C0000F900F900F900F9087FF48
:1003300004C08091C600883741F084EF91E00E94AC
:10034000C70085B1812785B9E0CF00D085E391E072
:10035000EDB7FEB7928381830E94B1010F900F9099
:10036000FFCFA0E0B0E0E7EBF1E00C94AF04FE01BA
:1003700035966191719180915A0190915B01AF0125
:100380000E94FB012096E2E00C94CB040F931F9394
:10039000CF93DF938C01E0915A01F0915B0183814F
:1003A00081FF21C0C0E0D0E00DC0E0915A01F09182
:1003B0005B0120853185BF01F9010995892B11F079
:1003C000CFEFDFEFF80181918F01882371F7E09182
:1003D0005A01F0915B01208531858AE0BF01F90166
:1003E0000995892B11F0CFEFDFEFCE01DF91CF918F
:1003F0001F910F910895ABE0B0E0E1E0F2E00C94C2
:100400009F043C012B015A01FC0117821682838153
:1004100081FD03C06FEF7FEFC6C19AE0892E1E01F8
:100420000894211C311CF3012381F20123FD8591E5
:1004300023FF81912F01882309F4B2C1853239F459
:1004400023FD859123FF81912F01853229F490E0CE
:10045000B3010E94EE03E7CF982FFF24EE249924E6
:10046000FFE1FF15D0F09B3269F09C3228F4903206
:1004700059F0933291F40EC09D3249F0903369F4F3
:1004800041E024C052E0F52A84E0F82A28C098E030
:10049000F92A25C0E0E1FE2A22C0F7FC29C0892FF5
:1004A00080538A3070F4F6FE05C0989C902C11247D
:1004B000980E15C0E89CE02C1124E80EF0E2FF2A0B
:1004C0000EC09E3229F4F6FC6BC140E4F42A07C04A
:1004D0009C3619F450E8F52A02C0983649F4F20126
:1004E00023FD959123FF91912F01992309F0B8CF16
:1004F000892F8554833018F08052833038F444E0DB
:1005000050E0A40EB51E5FE359830FC0933631F05F
:10051000933779F0933509F056C020C0F5018081FA
:10052000898342E050E0A40EB51E610101E010E0B5
:1005300012C0F501C080D180F6FC03C06FEF7FEFE1
:1005400002C0692D70E042E050E0A40EB51EC60165
:100550000E94E3038C015FE7F52214C0F501C0801F
:10056000D180F6FC03C06FEF7FEF02C0692D70E011
:1005700042E050E0A40EB51EC6010E94D8038C01D3
:1005800050E8F52AF3FE07C01AC080E290E0B301FC
:100590000E94EE03EA948E2D90E008171907A8F345
:1005A0000EC0F601F7FC8591F7FE81916F0190E096
:1005B000B3010E94EE03E110EA94015010400115CE
:1005C000110579F7EAC0943611F0993669F5F7FE0E
:1005D00008C0F501208131814281538184E090E09F
:1005E0000AC0F501808191819C01442737FD409527
:1005F000542F82E090E0A80EB91E9FE6F92257FF23
:1006000009C050954095309521953F4F4F4F5F4F12
:10061000E0E8FE2ACA01B901A1012AE030E00E9407
:100620001A04D82ED21840C0953729F41F2D1F7EEA
:100630002AE030E01DC01F2D197F9F3661F09037F2
:1006400020F4983509F0ACC00FC0903739F09837D6
:1006500009F0A6C004C028E030E00AC0106114FD13
:10066000146020E130E004C014FD166020E132E0A7
:1006700017FF08C0F501608171818281938144E098
:1006800050E008C0F50180819181BC0180E090E0DC
:1006900042E050E0A40EB51EA1010E941A04D82E1B
:1006A000D2188FE7F82EF122F6FE0BC05EEFF5228E
:1006B000D91438F4F4FE07C0F2FC05C08FEEF8221E
:1006C00002C01D2D01C0192DF4FE0DC0FE01ED0D5F
:1006D000F11D8081803319F499EEF92208C01F5F63
:1006E000F2FE05C003C08F2D867809F01F5F0F2D25
:1006F000F3FC14C0F0FE0FC01E1510F09D2C0BC0B3
:100700009D2C9E0C911A1E2D06C080E290E0B30134
:100710000E94EE031F5F1E15C0F304C01E1510F4E7
:10072000E11A01C0EE2404FF0FC080E390E0B301A2
:100730000E94EE0302FF1DC001FD03C088E790E0A8
:100740000EC088E590E00BC0802F867891F001FF05
:1007500002C08BE201C080E2F7FC8DE290E0B301C1
:100760000E94EE0306C080E390E0B3010E94EE0316
:100770009A94D914C0F3DA94F101ED0DF11D808142
:1007800090E0B3010E94EE03DD20A9F706C080E2ED
:1007900090E0B3010E94EE03EA94EE20C1F743CE4D
:1007A000F30166817781CB012B96E2E10C94BB04C7
:1007B000FC010590615070400110D8F7809590952C
:1007C0008E0F9F1F0895FC01615070400190011031
:1007D000D8F7809590958E0F9F1F08950F931F93C4
:1007E000CF93DF938C01EB018B8181FF1BC082FFD4
:1007F0000DC02E813F818C819D812817390764F4BB
:10080000E881F9810193F983E88306C0E885F985D9
:10081000802F0995892B31F48E819F8101969F83CA
:100820008E8302C00FEF1FEFC801DF91CF911F91A0
:100830000F910895FA01AA27283051F1203181F152
:10084000E8946F936E7F6E5F7F4F8F4F9F4FAF4FD8
:10085000B1E03ED0B4E03CD0670F781F891F9A1FEB
:10086000A11D680F791F8A1F911DA11D6A0F711D9F
:10087000811D911DA11D20D009F468943F912AE0AB
:10088000269F11243019305D3193DEF6CF01089593
:10089000462F4770405D4193B3E00FD0C9F7F6CFC4
:1008A000462F4F70405D4A3318F0495D31FD40528C
:1008B000419302D0A9F7EACFB4E0A6959795879522
:1008C00077956795BA95C9F7009761057105089501
:1008D0009B01AC010A2E06945795479537952795AD
:1008E000BA95C9F7620F731F841F951FA01D089545
:1008F000AA1BBB1B51E107C0AA1FBB1FA617B70746
:1009000010F0A61BB70B881F991F5A95A9F7809561
:100910009095BC01CD01089597FB092E07260AD0BA
:1009200077FD04D0E5DF06D000201AF470956195BC
:100930007F4F0895F6F7909581959F4F08952F92D8
:100940003F924F925F926F927F928F929F92AF925F
:10095000BF92CF92DF92EF92FF920F931F93CF93AC
:10096000DF93CDB7DEB7CA1BDB0B0FB6F894DEBF43
:100970000FBECDBF09942A88398848885F846E8469
:100980007D848C849B84AA84B984C884DF80EE80B3
:10099000FD800C811B81AA81B981CE0FD11D0FB6BC
:1009A000F894DEBF0FBECDBFED010895F894FFCFE0
:1009B000636F6D706C6574652074696D6564206F1C
:1009C000757400544D50313032204578616D706C33
:1009D000650074656D7065726174757265203D2087
:1009E0002564430A00596F7527766520676F6E6529
:1009F00020746F6F20666172210000000002000009
:080A00000000EF0000000000FF
:00000001FF
